:100000000C9472000C9493000C9493000C94930045
:100010000C9493000C94DF020C94B4020C949300A3
:100020000C9493000C9493000C9493000C94930004
:100030000C9493000C9493000C9493000C949300F4
:100040000C9493000C9493000C9493000C949300E4
:100050000C9493000C9493000C9493000C949300D4
:100060000C9493000C94D6090C9493000C94930078
:100070000C9493000C9493000C9493000C949300B4
:100080000C9493000C9493000C9493000C949300A4
:100090000C9493000C9493000C9493000C94930094
:1000A0000C9493000C9493000C9493000C94930084
:1000B0000C9493000C9493000C9493000C94930074
:1000C0000C9493000C9493000C9493000C94930064
:1000D0000C9493000C9493000C9493000C94930054
:1000E0000C94930011241FBECFEFD1E2DEBFCDBF31
:1000F00000E00CBF13E0A0E0B2E0ECE5F9E200E0C4
:100100000BBF02C007900D92A830B107D9F713E0DA
:10011000A8E0B3E001C01D92A032B107E1F70E9450
:10012000900D0C94AD140C940000CF93DF93CDB7D9
:10013000DEB7A4E2B0E0E4E2F0E0808180628C937C
:10014000A5E2B0E0E5E2F0E0808180628C93DF918F
:10015000CF910895CF93DF93CDB7DEB7A4E2B0E09F
:10016000E4E2F0E0808180648C93A5E2B0E0E5E217
:10017000F0E0808180648C93DF91CF910895CF93DC
:10018000DF93CDB7DEB7A4E2B0E0E4E2F0E0808137
:1001900080688C93A5E2B0E0E5E2F0E080818068C1
:1001A0008C93DF91CF910895CF93DF93CDB7DEB7D6
:1001B000A1E2B0E0E1E2F0E080818F608C93A2E206
:1001C000B0E0E2E2F0E0908180EF89238C93AAE036
:1001D000B1E0EAE0F1E0808188618C93ABE0B1E0CE
:1001E000EBE0F1E0808188618C93DF91CF910895FD
:1001F0000F931F93CF93DF93CDB7DEB725970FB63D
:10020000F894DEBF0FBECDBF8D8380E090E0A0E00C
:10021000B0E089839A83AB83BC838D81882F90E083
:10022000A0E0B0E0BC01CD010E941012DC01CB01C6
:1002300020E030E040E150E4BC01CD010E946610B6
:10024000DC01CB0120E030E048EA51E4BC01CD0103
:100250000E943A0FDC01CB0189839A83AB83BC8374
:10026000E9E8F0E0108208E810E069817A818B818A
:100270009C810E949D0DDC01CB01F80180832596B5
:100280000FB6F894DEBF0FBECDBFDF91CF911F91A7
:100290000F9108950F931F93CF93DF93CDB7DEB7E0
:1002A00025970FB6F894DEBF0FBECDBF8D8380E0DB
:1002B00090E0A0E0B0E089839A83AB83BC838D811A
:1002C000882F90E0A0E0B0E0BC01CD010E941012A8
:1002D000DC01CB0120E030E040E150E4BC01CD0185
:1002E0000E946610DC01CB0120E030E048EA51E4D6
:1002F000BC01CD010E943A0FDC01CB0189839A83B6
:10030000AB83BC83EBE8F0E010820AE810E069817F
:100310007A818B819C810E949D0DDC01CB01F801CB
:10032000808325960FB6F894DEBF0FBECDBFDF9158
:10033000CF911F910F9108950F931F93CF93DF9348
:10034000CDB7DEB725970FB6F894DEBF0FBECDBF91
:100350008D8380E090E0A0E0B0E089839A83AB8356
:10036000BC838D81882F90E0A0E0B0E0BC01CD017E
:100370000E941012DC01CB0120E030E040E150E4AB
:10038000BC01CD010E946610DC01CB0120E030E011
:1003900048EA51E4BC01CD010E943A0FDC01CB01D7
:1003A00089839A83AB83BC83EDE8F0E010820CE88C
:1003B00010E069817A818B819C810E949D0DDC0116
:1003C000CB01F801808325960FB6F894DEBF0FBEEF
:1003D000CDBFDF91CF911F910F910895CF93DF9300
:1003E000CDB7DEB7E1E8F0E01082E5E8F0E08CEFB1
:1003F0008083E4E8F0E081E08083E9E8F0E083E0F6
:100400008083E8E8F0E08FEF8083EBE8F0E083E0C2
:100410008083EAE8F0E08FEF8083EDE8F0E083E0AE
:100420008083ECE8F0E08FEF8083E7E8F0E083E0A2
:100430008083E6E8F0E08FEF8083E0E8F0E08BEA8D
:100440008083E2E8F0E01082E1E8F0E08CE0808375
:10045000DF91CF910895CF93DF93CDB7DEB7ADE2B3
:10046000B0E0EDE2F0E090818FEE89238C93AEE274
:10047000B0E0EEE2F0E0808180618C93DF91CF917B
:100480000895CF93DF93CDB7DEB7ADE2B0E0EDE2F4
:10049000F0E090818FED89238C93AEE2B0E0EEE244
:1004A000F0E0808180628C93DF91CF910895CF93AB
:1004B000DF93CDB7DEB7A7E2B0E0E7E2F0E08081FE
:1004C00088608C93A8E2B0E0E8E2F0E0908187EFEA
:1004D00089238C93DF91CF910895CF93DF93CDB78C
:1004E000DEB70E9495000E94AA000E94BF000E94F1
:1004F000D4000E945E050E942B020E9441020E94CD
:10050000D4000E945702DF91CF910895CF93DF93DB
:10051000CDB7DEB7F894AAE6B0E0EAE6F0E0808175
:1005200082608C93ADE3B0E0EDE3F0E08081806128
:100530008C937894DF91CF910895CF93DF93CDB7CB
:10054000DEB7F894AAE6B0E0EAE6F0E080818860E1
:100550008C93ADE3B0E0EDE3F0E0808180628C93BA
:100560007894DF91CF9108951F920F920FB60F925A
:1005700011248F939F93AF93BF93CF93DF93CDB706
:10058000DEB780910C0390910D03A0910E03B09102
:100590000F030196A11DB11D80930C0390930D03D1
:1005A000A0930E03B0930F03DF91CF91BF91AF9152
:1005B0009F918F910F900FBE0F901F9018951F92D3
:1005C0000F920FB60F9211248F939F93AF93BF9307
:1005D000CF93DF93CDB7DEB78091080390910903E5
:1005E000A0910A03B0910B030196A11DB11D809348
:1005F000080390930903A0930A03B0930B03DF91C0
:10060000CF91BF91AF919F918F910F900FBE0F909F
:100610001F901895CF93DF93CDB7DEB786E090E0BB
:100620000E943506DF91CF910895CF93DF93CDB728
:10063000DEB789E090E00E943506DF91CF91089502
:10064000CF93DF93CDB7DEB785E090E00E9435060B
:10065000DF91CF910895CF93DF93CDB7DEB78AE0D6
:1006600090E00E943506DF91CF910895CF93DF93FC
:10067000CDB7DEB784E090E00E943506DF91CF91E0
:100680000895CF93DF93CDB7DEB782E090E00E946C
:100690003506DF91CF910895CF93DF93CDB7DEB7C5
:1006A00081E090E00E943506DF91CF910895CF93CD
:1006B000DF93CDB7DEB788E090E00E943506DF918A
:1006C000CF910895CF93DF93CDB7DEB780E090E070
:1006D0000E943506DF91CF910895CF93DF93CDB778
:1006E000DEB72C970FB6F894DEBF0FBECDBF9A874A
:1006F000898780E090E0A0E0B0E08D839E83AF83A7
:10070000B88719821A821B821C8289859A85CC013E
:10071000A0E0B0E0BC01CD010E941012DC01CB01D1
:1007200028E431EE42E850E4BC01CD010E9466109D
:10073000DC01CB018D839E83AF83B8876D817E8181
:100740008F8198850E949D0DDC01CB01CC01A0E03A
:10075000B0E089839A83AB83BC8310920C03109220
:100760000D0310920E0310920F03109208031092C3
:10077000090310920A0310920B0320910C0330918D
:100780000D0340910E0350910F031C8689819A81BD
:10079000AB81BC81281739074A075B0710F081E05D
:1007A0008C87209108033091090340910A035091EE
:1007B0000B031B8689819A81AB81BC81281739077D
:1007C0004A075B0710F091E09B878C859B85892BFE
:1007D000882309F4D2CF0E9462032C960FB6F894B6
:1007E000DEBF0FBECDBFDF91CF910895CF93DF93D2
:1007F000CDB7DEB72A970FB6F894DEBF0FBECDBFD8
:100800009A87898780E090E0A0E0B0E08D839E83A6
:10081000AF83B88719821A821B821C8289859A85C8
:10082000CC01A0E0B0E0BC01CD010E941012DC01BF
:10083000CB0125EE30ED4AEA50E4BC01CD010E9427
:100840006610DC01CB018D839E83AF83B8876D81F9
:100850007E818F8198850E949D0DDC01CB0189836B
:100860009A83AB83BC8310920C0310920D031092F9
:100870000E0310920F0320910C0330910D03409151
:100880000E0350910F0389819A81AB81BC8182173D
:100890009307A407B50708F0EECF0E9462032A96DB
:1008A0000FB6F894DEBF0FBECDBFDF91CF91089594
:1008B000CF93DF93CDB7DEB722970FB6F894DEBFA4
:1008C0000FBECDBF9A8389830E940A0389819A81D2
:1008D0000E94F60322960FB6F894DEBF0FBECDBF7E
:1008E000DF91CF910895CF93DF93CDB7DEB72297F5
:1008F0000FB6F894DEBF0FBECDBF9A8389830E94E6
:10090000150389819A810E94F60322960FB6F89406
:10091000DEBF0FBECDBFDF91CF910895CF93DF93A0
:10092000CDB7DEB722970FB6F894DEBF0FBECDBFAE
:100930009A8389830E94200389819A810E946D0392
:1009400022960FB6F894DEBF0FBECDBFDF91CF91D8
:100950000895CF93DF93CDB7DEB722970FB6F89403
:10096000DEBF0FBECDBF9A8389830E942B0389818E
:100970009A810E946D0322960FB6F894DEBF0FBED7
:10098000CDBFDF91CF910895CF93DF93CDB7DEB781
:1009900022970FB6F894DEBF0FBECDBF9A8389832E
:1009A0000E94360389819A81880F991F9A838983CF
:1009B00089819A810E946D0322960FB6F894DEBF5A
:1009C0000FBECDBFDF91CF910895CF93DF93CDB709
:1009D000DEB722970FB6F894DEBF0FBECDBF9A8365
:1009E00089830E94410389819A81880F991F9A8384
:1009F000898389819A810E946D0322960FB6F894AB
:100A0000DEBF0FBECDBFDF91CF910895CF93DF93AF
:100A1000CDB7DEB722970FB6F894DEBF0FBECDBFBD
:100A20009A8389830E944C0389819A81880F991F38
:100A30009A83898389819A810E946D0322960FB6D9
:100A4000F894DEBF0FBECDBFDF91CF910895CF9355
:100A5000DF93CDB7DEB722970FB6F894DEBF0FBE97
:100A6000CDBF9A8389830E94570389819A81880F19
:100A7000991F9A83898389819A810E946D032296A6
:100A80000FB6F894DEBF0FBECDBFDF91CF910895B2
:100A9000CF93DF93CDB7DEB7A7E2B0E0E7E2F0E0B7
:100AA0008081876F8C93A8E2B0E0E8E2F0E090816B
:100AB00080E889238C93DF91CF910895CF93DF93C2
:100AC000CDB7DEB7E0E3F0E01082E1E3F0E01082C2
:100AD000E7E0F1E01082E8E0F1E01082DF91CF91F1
:100AE0000895CF93DF93CDB7DEB7E1E2F1E0108256
:100AF000E5E2F1E08FEF8083E4E2F1E081E08083E2
:100B0000E9E2F1E01082E8E2F1E08FEF8083EBE2CE
:100B1000F1E01082EAE2F1E08FEF8083EDE2F1E0B4
:100B20001082ECE2F1E08FEF8083E0E2F1E089EA0D
:100B30008083E1E2F1E08BE08083DF91CF91089543
:100B4000CF93DF93CDB7DEB7EAE7F0E01082EBE7B3
:100B5000F0E01082ECE7F0E080E28083E0E5F0E096
:100B600080E88083EAE7F0E086E88083DF91CF9138
:100B70000895CF93DF93CDB7DEB722970FB6F894E1
:100B8000DEBF0FBECDBF8A838A81883020F0EBE7BD
:100B9000F0E088E080838A8187708A83ECE7F0E068
:100BA0008A8180628083AAE7B0E0EAE7F0E0808192
:100BB00080648C93EAE7F0E08081882F90E0807178
:100BC00090700097B9F3E9E7F0E080818983AAE7A4
:100BD000B0E0EAE7F0E0808180618C93EBE7F0E041
:100BE00010828981882F90E022960FB6F894DEBF9C
:100BF0000FBECDBFDF91CF910895CF93DF93CDB7D7
:100C0000DEB723970FB6F894DEBF0FBECDBF898342
:100C10006A834B838B810E94B90580931C032396C2
:100C20000FB6F894DEBF0FBECDBFDF91CF91089510
:100C3000CF93DF93CDB7DEB722970FB6F894DEBF20
:100C40000FBECDBF89836A83E8E2F1E089818083AA
:100C5000EAE2F1E08A81808322960FB6F894DEBF43
:100C60000FBECDBFDF91CF910895CF93DF93CDB766
:100C7000DEB722970FB6F894DEBF0FBECDBF8A83D2
:100C800019828A818F708A83E2E2F0E08081898311
:100C900090EF89818923898399818A81892B89832E
:100CA000E2E2F0E08981808322960FB6F894DEBFFD
:100CB0000FBECDBFDF91CF910895CF93DF93CDB716
:100CC000DEB721970FB6F894DEBF0FBECDBF1982F5
:100CD000E6E2F0E080818983898188608983E8E2A7
:100CE000F0E08981808321960FB6F894DEBF0FBEB5
:100CF000CDBFDF91CF910895CF93DF93CDB7DEB70E
:100D000021970FB6F894DEBF0FBECDBF1982E6E281
:100D1000F0E08081898397EF898189238983E8E2E4
:100D2000F0E08981808321960FB6F894DEBF0FBE74
:100D3000CDBFDF91CF910895CF93DF93CDB7DEB7CD
:100D4000E1ECF0E01082E0ECF0E01082E2ECF0E0A8
:100D500086E08083E4ECF0E087E48083E5ECF0E07B
:100D60001082E1ECF0E088E98083DF91CF91089573
:100D7000CF93DF93CDB7DEB7A4970FB6F894DEBF5D
:100D80000FBECDBF0E94790D80E090E0A0E0B0E002
:100D900089A39AA3ABA3BCA31D8E1E8E1F8E18A27F
:100DA0008EE69EEDA5E9B1E489A39AA3ABA3BCA30B
:100DB00069A17AA18BA19CA10E949D0DDC01CB01B0
:100DC0008D8F9E8FAF8FB8A310920C0310920D03DE
:100DD00010920E0310920F0383E00E94B9058093D6
:100DE000130382E00E94B9058093140381E00E94FE
:100DF000B905809315031092120320910C033091D2
:100E00000D0340910E0350910F038D8D9E8DAF8D7C
:100E1000B8A182179307A407B50708F0FDC00E9488
:100E2000620384EB0E94F80080E090E0AAEFB4E453
:100E3000898F9A8FAB8FBC8F2DEC3CEC4CE255E444
:100E4000698D7A8D8B8D9C8D0E94670FDC01CB01A3
:100E50008D8B9E8BAF8BB88F20E030E040E85FE356
:100E60006D897E898F89988D0E94871188230CF067
:100E700005C081E090E09C8B8B8B40C020E03FEF71
:100E80004FE757E46D897E898F89988D0E941B11E9
:100E900018160CF029C020E030E040E251E4698DE2
:100EA0007A8D8B8D9C8D0E94670FDC01CB01BC017C
:100EB000CD010E949D0DDC01CB019C8B8B8B0FC063
:100EC00084E191E09A8B898B89899A890197F1F75E
:100ED0009A8B898B8B899C8901979C8B8B8B8B89B7
:100EE0009C89009769F714C06D897E898F89988DD8
:100EF0000E949D0DDC01CB019C8B8B8B8B899C8987
:100F0000988B8F878F8598890197F1F7988B8F87BA
:100F100084EB0E944A01E6ECF0E081E0808380E00F
:100F200090E4ACE9B6E48B879C87AD87BE872DEC57
:100F30003CEC4CE255E46B857C858D859E850E945A
:100F4000670FDC01CB018F839887A987BA8720E0E0
:100F500030E040E85FE36F81788589859A850E945B
:100F6000871188230CF005C081E090E09E838D837B
:100F700040C020E03FEF4FE757E46F8178858985D7
:100F80009A850E941B1118160CF029C020E030E051
:100F900040E251E46B857C858D859E850E94670FBC
:100FA000DC01CB01BC01CD010E949D0DDC01CB0118
:100FB0009E838D830FC084E191E09C838B838B8122
:100FC0009C810197F1F79C838B838D819E81019792
:100FD0009E838D838D819E81009769F714C06F81F8
:100FE000788589859A850E949D0DDC01CB019E83C1
:100FF0008D838D819E819A83898389819A810197CE
:10100000F1F79A83898310920C0310920D031092CA
:101010000E0310920F0345C080911403893548F0E8
:1010200081E0809312030E940A0366E986E90E9428
:10103000180680911303883568F480911203882381
:1010400049F481E0809312030E940A0362E382E87C
:101050000E94180680911503883568F48091120368
:10106000882349F481E0809312030E940A0362E816
:1010700082E30E94180680911403883508F0ACCEF4
:1010800080911303883508F0A7CE80911503883529
:1010900008F0A2CE0E940A0360E080E00E941806D9
:1010A0009BCEA4960FB6F894DEBF0FBECDBFDF91E6
:1010B000CF910895CF93DF93CDB7DEB766970FB684
:1010C000F894DEBF0FBECDBF0E94790D80E090E0A6
:1010D000A0E0B0E08B8B9C8BAD8BBE8B1F86188AFB
:1010E000198A1A8A8EE69EEDA5E9B1E48B8B9C8B5A
:1010F000AD8BBE8B6B897C898D899E890E949D0DED
:10110000DC01CB018F87988BA98BBA8B10920C03D3
:1011100010920D0310920E0310920F0383E00E94B1
:10112000B9058093130382E00E94B90580931403EC
:1011300081E00E94B905809315031092120320915B
:101140000C0330910D0340910E0350910F038F85D6
:101150009889A989BA8982179307A407B50708F067
:1011600083C00E946203E6ECF0E081E0808380E0CF
:1011700090E0AAEFB4E48B879C87AD87BE872DEC07
:101180003CEC4CE255E46B857C858D859E850E9408
:10119000670FDC01CB018F839887A987BA8720E08E
:1011A00030E040E85FE36F81788589859A850E9409
:1011B000871188230CF005C081E090E09E838D8329
:1011C00040C020E03FEF4FE757E46F817885898585
:1011D0009A850E941B1118160CF029C020E030E0FF
:1011E00040E251E46B857C858D859E850E94670F6A
:1011F000DC01CB01BC01CD010E949D0DDC01CB01C6
:101200009E838D830FC084E191E09C838B838B81CF
:101210009C810197F1F79C838B838D819E8101973F
:101220009E838D838D819E81009769F714C06F81A5
:10123000788589859A850E949D0DDC01CB019E836E
:101240008D838D819E819A83898389819A8101977B
:10125000F1F79A83898310920C0310920D03109278
:101260000E0310920F0345C080911403893548F096
:1012700081E0809312030E940A0366E986E90E94D6
:10128000180680911303883568F48091120388232F
:1012900049F481E0809312030E940A0362E382E82A
:1012A0000E94180680911503883568F48091120316
:1012B000882349F481E0809312030E940A0362E8C4
:1012C00082E30E94180680911403883508F026CF27
:1012D00080911303883508F021CF8091150388355C
:1012E00008F01CCF0E940A0360E080E00E9418060C
:1012F00015CF66960FB6F894DEBF0FBECDBFDF9157
:10130000CF910895CF93DF93CDB7DEB72C970FB66B
:10131000F894DEBF0FBECDBF9A8789877C876B8725
:1013200089859A8598878F838B859C859E838D83FD
:101330001C821B821A82198207C00E945A08898166
:101340009A8101969A83898329813A818F81988530
:101350002817390794F38B859C851816190664F4B1
:101360008AE590E00E948E0407C00E945A088B8193
:101370009C8101969C838B832B813C818D819E81F6
:101380002817390794F32C960FB6F894DEBF0FBEDA
:10139000CDBFDF91CF910895CF93DF93CDB7DEB767
:1013A00084EB0E944A01DF91CF9108951F920F9222
:1013B0000FB60F9211240F931F932F933F934F93C8
:1013C0005F936F937F938F939F93AF93BF93EF93AD
:1013D000FF93CF93DF93CDB7DEB7C654D040DEBFC7
:1013E000CDBFE6ECF0E0808180931F03E6ECF0E0F7
:1013F00080911F03808380911F038833E9F48091DB
:101400001D0390911E03009739F488E090E09093BB
:101410001B0380931A030CC088E090E0909319039B
:101420008093180381E090E090931E0380931D0346
:10143000E2E2F0E085E0808380911F038233E9F4EB
:1014400080911D0390911E03009739F482E090E093
:1014500090931B0380931A030CC082E090E090935A
:1014600019038093180381E090E090931E0380930A
:101470001D03E2E2F0E089E0808380911F03843362
:10148000E9F480911D0390911E03009739F484E0E4
:1014900090E090931B0380931A030CC084E090E0CB
:1014A000909319038093180381E090E090931E03BA
:1014B00080931D03E2E2F0E085E0808380911F03CA
:1014C0008633E9F480911D0390911E03009739F44F
:1014D00086E090E090931B0380931A030CC086E093
:1014E00090E0909319038093180381E090E090932B
:1014F0001E0380931D03E2E2F0E08AE08083809186
:101500001F038533E1F480911D0390911E03009722
:1015100039F485E090E090931B0380931A030CC08C
:1015200085E090E0909319038093180381E090E0A8
:1015300090931E0380931D03E2E2F0E010828091FD
:101540001F03823721F4E2E2F0E086E0808380919D
:101550001F038733D9F480911D0390911E030097D8
:1015600039F487E090E090931B0380931A030CC03A
:1015700087E090E0909319038093180381E090E056
:1015800090931E0380931D030E945D0680911F03AC
:101590008933D9F480911D0390911E03009739F48B
:1015A00089E090E090931B0380931A030CC089E0BC
:1015B00090E0909319038093180381E090E090935A
:1015C0001E0380931D030E947C0680911F038133BC
:1015D00009F080C181E090E09093110380931003A3
:1015E0008AE50E944A01FE01ED5BFF4F80E090E03A
:1015F000AAEFB4E480839183A283B3838E01015C5C
:101600001F4FFE01ED5BFF4F2DEC3CEC4CE255E42F
:1016100060817181828193810E94670FDC01CB011F
:10162000F80180839183A283B383FE01FF9620E0BB
:1016300030E040E85FE360817181828193810E94A4
:10164000871188230CF005C081E090E09EAF8DAF3C
:1016500047C0FE01FF9620E03FEF4FE757E460816F
:101660007181828193810E941B1118160CF02CC08D
:10167000FE01ED5BFF4F20E030E040E251E460818D
:101680007181828193810E94670FDC01CB01BC01D3
:10169000CD010E949D0DDC01CB019EAF8DAF0FC02F
:1016A00084E191E09CAF8BAF8BAD9CAD0197F1F7DE
:1016B0009CAF8BAF8DAD9EAD01979EAF8DAF8DADC5
:1016C0009EAD009769F716C0FE01FF96608171819B
:1016D000828193810E949D0DDC01CB019EAF8DAF75
:1016E0008DAD9EAD9AAF89AF89AD9AAD0197F1F7F7
:1016F0009AAF89AF80E090E0AAE7B5E48DAB9EABEE
:10170000AFABB8AF2DEC3CEC4CE255E46DA97EA933
:101710008FA998AD0E94670FDC01CB0189AB9AAB12
:10172000ABABBCAB20E030E040E85FE369A97AA94D
:101730008BA99CA90E94871188230CF005C081E029
:1017400090E098AB8FA740C020E03FEF4FE757E411
:1017500069A97AA98BA99CA90E941B1118160CF0E3
:1017600029C020E030E040E251E46DA97EA98FA9B4
:1017700098AD0E94670FDC01CB01BC01CD010E9436
:101780009D0DDC01CB0198AB8FA70FC084E191E0E8
:101790009EA78DA78DA59EA50197F1F79EA78DA762
:1017A0008FA598A9019798AB8FA78FA598A90097A7
:1017B00069F714C069A97AA98BA99CA90E949D0DFB
:1017C000DC01CB0198AB8FA78FA598A99CA78BA70D
:1017D0008BA59CA50197F1F79CA78BA762E070E011
:1017E00084E090E00E94820980E090E0AAEFB4E4F7
:1017F0008FA398A7A9A7BAA72DEC3CEC4CE255E41F
:101800006FA178A589A59AA50E94670FDC01CB017D
:101810008BA39CA3ADA3BEA320E030E040E85FE330
:101820006BA17CA18DA19EA10E94871188230CF041
:1018300005C081E090E09AA389A340C020E03FEF7B
:101840004FE757E46BA17CA18DA19EA10E941B11C3
:1018500018160CF029C020E030E040E251E46FA1FE
:1018600078A589A59AA50E94670FDC01CB01BC0170
:10187000CD010E949D0DDC01CB019AA389A30FC06D
:1018800084E191E098A38F8F8F8D98A10197F1F754
:1018900098A38F8F89A19AA101979AA389A389A15F
:1018A0009AA1009769F714C06BA17CA18DA19EA19C
:1018B0000E949D0DDC01CB019AA389A389A19AA165
:1018C0009E8F8D8F8D8D9E8D0197F1F79E8F8D8FC1
:1018D0000E94CC0980911F03803309F0F0C08AE593
:1018E0000E94F80080E090E0AAEFB4E4898F9A8F1C
:1018F000AB8FBC8F2DEC3CEC4CE255E4698D7A8DBE
:101900008B8D9C8D0E94670FDC01CB018D8B9E8B94
:10191000AF8BB88F20E030E040E85FE36D897E89CF
:101920008F89988D0E94871188230CF005C081E073
:1019300090E09C8B8B8B40C020E03FEF4FE757E45B
:101940006D897E898F89988D0E941B1118160CF065
:1019500029C020E030E040E251E4698D7A8D8B8D22
:101960009C8D0E94670FDC01CB01BC01CD010E9460
:101970009D0DDC01CB019C8B8B8B0FC084E191E032
:101980009A8B898B89899A890197F1F79A8B898B30
:101990008B899C8901979C8B8B8B8B899C89009769
:1019A00069F714C06D897E898F89988D0E949D0D7D
:1019B000DC01CB019C8B8B8B8B899C89988B8F87CF
:1019C0008F8598890197F1F7988B8F878AE50E9418
:1019D0004A0180E090E0AAEFB4E48B879C87AD8752
:1019E000BE872DEC3CEC4CE255E46B857C858D8507
:1019F0009E850E94670FDC01CB018F839887A987A2
:101A0000BA8720E030E040E85FE36F817885898520
:101A10009A850E94871188230CF005C081E090E030
:101A20009E838D8340C020E03FEF4FE757E46F81F6
:101A3000788589859A850E941B1118160CF029C09B
:101A400020E030E040E251E46B857C858D859E8509
:101A50000E94670FDC01CB01BC01CD010E949D0DEE
:101A6000DC01CB019E838D830FC084E191E09C83D8
:101A70008B838B819C810197F1F79C838B838D8174
:101A80009E8101979E838D838D819E81009769F74A
:101A900014C06F81788589859A850E949D0DDC012F
:101AA000CB019E838D838D819E819A8389838981D9
:101AB0009A810197F1F79A8389830E94B806CA5BDD
:101AC000DF4FF894DEBFCDBFDF91CF91FF91EF9153
:101AD000BF91AF919F918F917F916F915F914F9146
:101AE0003F912F911F910F910F900FBE0F901F905C
:101AF0001895CF93DF93CDB7DEB7F8940E946D02AF
:101B00000E949C060E94A0050E9471050E94EE01A1
:101B10000E9486020E949D027894DF91CF910895E1
:101B2000CF93DF93CDB7DEB70E94790D10921E03DD
:101B300010921D030E94B806FFCFEF92FF920F9301
:101B40001F937B018C0120E030E040E05FE40E94C5
:101B5000511188237CF020E030E040E05FE4C801D0
:101B6000B7010E94090F0E94BD1160507040804073
:101B7000904804C0C801B7010E94BD111F910F9188
:101B8000FF90EF900895A0E0B0E0E9ECFDE00C9448
:101B900078142C015B01FA01DC019C91923008F46D
:101BA00032C1EB018881823008F42CC1943071F489
:101BB000843009F028C1F20191818981981709F4D4
:101BC00022C110E0412E12E0512E1DC1843009F4D3
:101BD00019C18230A9F4923009F015C1CA01A201DD
:101BE00028E0DA010D90AD01EC010992CE012150FF
:101BF000C1F7E5018981E20199818923818300C1CF
:101C0000923009F4FFC0E201CA80DB80EB018A81D7
:101C10009B81E2012C813D814E815F81EB01EC8053
:101C2000FD800E811F81B601681B790BDB0177FFF8
:101C300003C0709561957F4F603271050CF05DC0F7
:101C40001A161B065CF566247724430181E090E0B8
:101C5000A0E0B0E0062E04C0880F991FAA1FBB1F8A
:101C60000A94D2F70197A109B1098E219F21A023DF
:101C7000B1230097A105B10529F0B1E06B2E712CBD
:101C8000812C912C04C016950795F794E7946A95DA
:101C9000D2F7E628F728082919293BC0AB2BC9F150
:101CA000C60ED71E66247724430181E090E0A0E0B1
:101CB000B0E0062E04C0880F991FAA1FBB1F0A940C
:101CC000D2F70197A109B10982239323A423B52355
:101CD0000097A105B10529F0A1E06A2E712C812C95
:101CE000912C04C056954795379527956A95D2F75C
:101CF00026293729482959290CC08C159D0534F00F
:101D00006C0120E030E040E050E003C0EE24FF240E
:101D10008701E2019981E5018981981709F443C09F
:101D2000992339F0E21AF30A040B150BA801970165
:101D300004C02E193F09400B510B57FD08C01182FA
:101D4000D382C28224833583468357831DC081E0BA
:101D50008183D382C28288279927DC01821B930B5F
:101D6000A40BB50B84839583A683B7830DC0220F84
:101D7000331F441F551F2483358346835783828135
:101D80009381019793838283248135814681578192
:101D9000DA01C9010197A109B1098F5F9F4FAF4FC8
:101DA000BF4328F30BC09183D382C2822E0D3F1D07
:101DB000401F511F248335834683578383E08083EC
:101DC00024813581468157815523D4F4C901AA273E
:101DD00097FDA095BA2F81709070A070B070569545
:101DE000479537952795822B932BA42BB52B84836E
:101DF0009583A683B783828193810196938382839F
:101E00002F0101C02501C201E0E1CDB7DEB70C947E
:101E10009414A0E2B0E0EFE0FFE00C948214698338
:101E20007A838B839C832D833E834F83588709E07D
:101E3000E02EF12CEC0EFD1EB701CE0101960E94A2
:101E4000B0138E010F5E1F4FB801CE0105960E94A0
:101E5000B0138A8991E089278A8BAE01475E5F4F74
:101E6000B801C7010E94C30D0E94D012E6E0A096FF
:101E70000C949E14A0E2B0E0E0E4FFE00C94821425
:101E800069837A838B839C832D833E834F8358871A
:101E900089E0E82EF12CEC0EFD1EB701CE01019673
:101EA0000E94B0138E010F5E1F4FB801CE01059640
:101EB0000E94B013AE01475E5F4FB801C7010E9498
:101EC000C30D0E94D012E6E0A0960C949E14A0E2EE
:101ED000B0E0EDE6FFE00C94781469837A838B839D
:101EE0009C832D833E834F83588799E0E92EF12C04
:101EF000EC0EFD1EB701CE0101960E94B0138E01BB
:101F00000F5E1F4FB801CE0105960E94B013998550
:101F1000923088F089898230C0F0943019F4823090
:101F200029F009C0843029F4923079F460E072E03D
:101F3000C6C0923041F420E09A858A89981321E046
:101F40002A87B701BCC0823041F420E09A858A8993
:101F5000981321E02A8BB801B2C0CD84DE84EF84CF
:101F6000F8880D891E892F89388D88249924540179
:101F700040E050E060E070E0442455243201E0E0AD
:101F8000F0E0C60181709070892BD9F0800E911E0F
:101F9000A21EB31EDB01CA01840D951DA61DB71D2F
:101FA00040E050E060E070E080169106A206B306C3
:101FB00020F441E050E060E070E0480F591F6A1FD4
:101FC0007B1F440C551C661C771C37FF08C081E042
:101FD00090E0A0E0B0E0482A592A6A2A7B2A31968C
:101FE000E032F10549F0000F111F221F331FF69454
:101FF000E794D794C794C5CF8B899C892B853C8562
:10200000820F931F02969C8F8B8F1A8E9A858A89D6
:10201000981711F081E08A8F2B8D3C8D17C0CA0173
:1020200081709070892B61F0B694A79497948794EF
:1020300080E090E0A0E0B0E8882A992AAA2ABB2A8A
:1020400076956795579547952F5F3F4F77FDE7CF7B
:10205000C9010BC0440F551F661F771FB7FC4160B5
:10206000880C991CAA1CBB1C01974030A0E05A07A1
:10207000A0E06A07A0E47A0768F39C8F8B8FDB01EE
:10208000CA018F779070A070B07080349105A1055F
:10209000B10561F447FD0AC081149104A104B104A3
:1020A00029F0405C5F4F6F4F7F4F40784D8F5E8FC0
:1020B0006F8F78A383E0898FBE01675E7F4FCB016E
:1020C0000E94D012E0E1A0960C949414A8E1B0E034
:1020D000ECE6F0E10C947E1469837A838B839C8315
:1020E0002D833E834F8358878E01075F1F4FB801B2
:1020F000CE0101960E94B01381E1E82EF12CEC0E86
:10210000FD1EB701CE0105960E94B013398532300D
:10211000F8F02989223010F4B70186C08A859A899F
:1021200089278A87343011F0323029F4321781F44C
:1021300060E072E079C0243039F41D861E861F8667
:10214000188A1C861B8604C0223021F484E089870B
:10215000B8016AC06B857C858B899C89681B790B6B
:102160007C876B872D853E854F8558898D899E8913
:10217000AF89B88D281739074A075B0740F4220F4B
:10218000331F441F551F615070407C876B87A12C03
:10219000B12CC12C10E4D12EEE24FF24870160E085
:1021A00070E0281739074A075B0740F0EA28FB2848
:1021B0000C291D29281B390B4A0B5B0BD694C7949D
:1021C000B794A794220F331F441F551F6F5F7F4F93
:1021D0006F31710531F7D801C7018F779070A0700A
:1021E000B07080349105A105B105B9F4E7FC15C0C4
:1021F000211531054105510581F080E490E0A0E012
:10220000B0E0E80EF91E0A1F1B1F80E89FEFAFEF3A
:10221000BFEFE822F9220A231B23ED86FE860F87F3
:10222000188BBE01675F7F4FCB010E94D012EAE09E
:1022300068960C949A14A8E1B0E0E1E2F1E10C9404
:10224000821469837A838B839C832D833E834F839F
:10225000588789E0E82EF12CEC0EFD1EB701CE0167
:1022600001960E94B0138E010F5E1F4FB801CE0180
:1022700005960E94B0138985823060F0898982308A
:1022800048F0B801C7010E942014282F332727FDEA
:10229000309502C02FEF3FEFC901E6E068960C943D
:1022A0009E14A8E1B0E0E7E5F1E10C9482146983A3
:1022B0007A838B839C832D833E834F83588789E069
:1022C000E82EF12CEC0EFD1EB701CE0101960E9406
:1022D000B0138E010F5E1F4FB801CE0105960E940C
:1022E000B0138985823060F08989823048F0B80166
:1022F000C7010E942014282F332727FD309502C0E4
:102300002FEF3FEFC901E6E068960C949E14A8E118
:10231000B0E0EDE8F1E10C94821469837A838B8359
:102320009C832D833E834F83588789E0E82EF12CD0
:10233000EC0EFD1EB701CE0101960E94B0138E0176
:102340000F5E1F4FB801CE0105960E94B01389851C
:10235000823060F08989823048F0B801C7010E945C
:102360002014282F332727FD309502C021E030E0CC
:10237000C901E6E068960C949E14ACE0B0E0E3EC92
:10238000F1E10C94861469837A838B839C83BE016C
:102390006B5F7F4FCE0101960E94B0138D8182301A
:1023A000A9F1823098F1843021F48E81882359F488
:1023B0000FC02F81388537FD29C06E812F3131053F
:1023C00064F0662329F020E030E040E050E822C0CD
:1023D0002FEF3FEF4FEF5FE71DC08EE190E0821BD4
:1023E000930B29853A854B855C8504C056954795A6
:1023F000379527958A95D2F7662361F050954095D9
:10240000309521953F4F4F4F5F4F04C020E030E0A3
:1024100040E050E0CA01B901E2E02C960C94A2140D
:10242000A8E0B0E0E6E1F2E10C9480147B018C01BD
:10243000611571058105910519F482E089835AC0FF
:1024400083E089838EE1C82ED12CDC82CB82ED82A1
:10245000FE820F831887C801B7010E948312BC0156
:102460006150704077FF33C0EE27FF27E61BF70B64
:1024700020E030E040E050E081E090E0A0E0B0E01B
:102480000E2E04C0880F991FAA1FBB1F0A94D2F7F3
:102490000197A109B1098E219F21A023B1230097A3
:1024A000A105B10521F021E030E040E050E004C09A
:1024B00016950795F794E794EA95D2F72E293F29C8
:1024C000402B512B2D833E834F8358870FC06115BE
:1024D000710581F0062E04C0EE0CFF1C001F111FB9
:1024E0000A94D2F7ED82FE820F831887C61AD70AA4
:1024F000DC82CB821A82CE0101960E94D012E8E0E3
:1025000028960C949C14EF92FF920F931F939B01BB
:10251000AC01203080E0380781E0480780E05807B0
:1025200080F42F3F31054105510509F020F4EE24D8
:10253000FF24870119C068E0E62EF12C012D112D32
:1025400013C0203080E0380780E0480781E058075A
:1025500030F490E1E92EF12C012D112D05C088E118
:10256000E82EF12C012D112D80E290E0A0E0B0E0EA
:102570008E199F09A00BB10B04C05695479537954E
:102580002795EA94D2F7F901E85FFD4F2081821B7D
:102590009109A109B1091F910F91FF90EF90089542
:1025A0009F92AF92BF92CF92DF92EF92FF920F93E2
:1025B0001F93EE24FF248701FC012481358146818D
:1025C000578191808081823010F44061A2C08430B4
:1025D00009F49BC0823029F420E030E040E050E074
:1025E00005C0211531054105510519F4E0E0F0E081
:1025F00092C0828193816FEF823896070CF05AC0A7
:1026000062E87FEF681B790B6A3171052CF020E0DE
:1026100030E040E050E02AC0AA24BB24650181E0FC
:1026200090E0A0E0B0E0062E04C0880F991FAA1F1A
:10263000BB1F0A94D2F70197A109B1098223932302
:10264000A423B5230097A105B10529F071E0A72EB9
:10265000B12CC12CD12C04C05695479537952795A0
:102660006A95D2F72A293B294C295D29DA01C9014B
:102670008F779070A070B07080349105A105B1057E
:1026800039F427FF09C0205C3F4F4F4F5F4F04C014
:10269000215C3F4F4F4F5F4F80E090E0203060E083
:1026A000360760E0460760E4560710F081E090E0EE
:1026B000FC0123C08038910544F5FC01E158FF4F2F
:1026C000DA01C9018F779070A070B07080349105E5
:1026D000A105B10539F427FF09C0205C3F4F4F4FDA
:1026E0005F4F04C0215C3F4F4F4F5F4F57FF05C006
:1026F0005695479537952795319687E05695479596
:10270000379527958A95D1F706C020E030E040E064
:1027100050E0EFEFF0E0E22EF32E942F9F77802F22
:102720008078892B9E2F9795992797958F77082FDB
:10273000092B9E2F9695812F8078892B9794992429
:1027400097948F77182F1929C801B7011F910F91FE
:10275000FF90EF90DF90CF90BF90AF909F90089543
:10276000CF93DF93FC01DB01208131819281492FDE
:102770004F7750E0991F9927991F8381E82FEE0F1B
:10278000E92B6E2F70E0881F8827881FED01898351
:10279000EE2371F5211531054105510511F482E053
:1027A0002FC06E577040FD017383628367E0220F74
:1027B000331F441F551F6A95D1F783E08C930AC0DD
:1027C000220F331F441F551FED018A819B81019702
:1027D0009B838A832030E0E03E07E0E04E07E0E4A0
:1027E0005E0770F3ED012C833D834E835F8325C02C
:1027F000EF3F79F4211531054105510519F484E0C5
:102800008C931BC044FF03C081E08C9311C01C92C9
:102810000FC06F577040ED017B836A8383E08C9318
:1028200087E0220F331F441F551F8A95D1F750644C
:10283000FD012483358346835783DF91CF9108952B
:10284000CF93DF93DC01FB019C91923008F446C0EA
:102850008081823008F442C0943049F4ED016981EE
:10286000843079F5818190E0861B91093CC08430E9
:1028700021F0923031F48230A1F18181882371F509
:102880002AC0ED0169818230E1F081816817C9F4C5
:10289000ED012A813B8182819381821793078CF01D
:1028A00028173907B4F0ED018C819D81AE81BF817D
:1028B0002481358146815781281739074A075B07EC
:1028C00018F4662341F40AC082179307A407B507DA
:1028D00040F4662319F48FEF9FEF05C081E090E08C
:1028E00002C080E090E0DF91CF9108952F923F9257
:1028F0004F925F926F927F928F929F92AF92BF9210
:10290000CF92DF92EF92FF920F931F93CF93DF93BB
:10291000CDB7DEB7CA1BDB0B0FB6F894DEBF0FBE18
:10292000CDBF19942A88398848885F846E847D8455
:102930008C849B84AA84B984C884DF80EE80FD8067
:102940000C811B81AA81B981CE0FD11D0FB6F894DD
:0C295000DEBF0FBECDBFED010895FFCF2C
:10295C00000000000000000000010202030303035A
:10296C000404040404040404050505050505050513
:10297C0005050505050505050606060606060606F3
:10298C0006060606060606060606060606060606DB
:10299C0006060606060606060707070707070707C3
:1029AC0007070707070707070707070707070707AB
:1029BC00070707070707070707070707070707079B
:1029CC00070707070707070707070707070707078B
:1029DC000707070707070707080808080808080873
:1029EC00080808080808080808080808080808085B
:1029FC00080808080808080808080808080808084B
:102A0C00080808080808080808080808080808083A
:102A1C00080808080808080808080808080808082A
:102A2C00080808080808080808080808080808081A
:102A3C00080808080808080808080808080808080A
:102A4C0008080808080808080808080808080808FA
:082A5C00080808080808080832
:00000001FF
